{"src/VaultWrBTC.sol":{"VaultWrBTC":{"abi":[{"type":"constructor","inputs":[{"name":"_rbtc","type":"address","internalType":"address"},{"name":"_oracle","type":"address","internalType":"address"}],"stateMutability":"nonpayable"},{"type":"function","name":"allowance","inputs":[{"name":"","type":"address","internalType":"address"},{"name":"","type":"address","internalType":"address"}],"outputs":[{"name":"","type":"uint256","internalType":"uint256"}],"stateMutability":"view"},{"type":"function","name":"approve","inputs":[{"name":"spender","type":"address","internalType":"address"},{"name":"amount","type":"uint256","internalType":"uint256"}],"outputs":[{"name":"","type":"bool","internalType":"bool"}],"stateMutability":"nonpayable"},{"type":"function","name":"balanceOf","inputs":[{"name":"","type":"address","internalType":"address"}],"outputs":[{"name":"","type":"uint256","internalType":"uint256"}],"stateMutability":"view"},{"type":"function","name":"decimals","inputs":[],"outputs":[{"name":"","type":"uint8","internalType":"uint8"}],"stateMutability":"view"},{"type":"function","name":"name","inputs":[],"outputs":[{"name":"","type":"string","internalType":"string"}],"stateMutability":"view"},{"type":"function","name":"onWrap","inputs":[{"name":"user","type":"address","internalType":"address"},{"name":"amount","type":"uint256","internalType":"uint256"}],"outputs":[],"stateMutability":"nonpayable"},{"type":"function","name":"oracle","inputs":[],"outputs":[{"name":"","type":"address","internalType":"address"}],"stateMutability":"view"},{"type":"function","name":"rbtc","inputs":[],"outputs":[{"name":"","type":"address","internalType":"address"}],"stateMutability":"view"},{"type":"function","name":"redeem","inputs":[{"name":"amount","type":"uint256","internalType":"uint256"}],"outputs":[],"stateMutability":"nonpayable"},{"type":"function","name":"slashFromOracle","inputs":[{"name":"user","type":"address","internalType":"address"},{"name":"amount","type":"uint256","internalType":"uint256"}],"outputs":[],"stateMutability":"nonpayable"},{"type":"function","name":"symbol","inputs":[],"outputs":[{"name":"","type":"string","internalType":"string"}],"stateMutability":"view"},{"type":"function","name":"totalSupply","inputs":[],"outputs":[{"name":"","type":"uint256","internalType":"uint256"}],"stateMutability":"view"},{"type":"function","name":"transfer","inputs":[{"name":"to","type":"address","internalType":"address"},{"name":"amount","type":"uint256","internalType":"uint256"}],"outputs":[{"name":"","type":"bool","internalType":"bool"}],"stateMutability":"nonpayable"},{"type":"function","name":"transferFrom","inputs":[{"name":"from","type":"address","internalType":"address"},{"name":"to","type":"address","internalType":"address"},{"name":"amount","type":"uint256","internalType":"uint256"}],"outputs":[{"name":"","type":"bool","internalType":"bool"}],"stateMutability":"nonpayable"},{"type":"event","name":"Approval","inputs":[{"name":"owner","type":"address","indexed":true,"internalType":"address"},{"name":"spender","type":"address","indexed":true,"internalType":"address"},{"name":"amount","type":"uint256","indexed":false,"internalType":"uint256"}],"anonymous":false},{"type":"event","name":"Redeemed","inputs":[{"name":"user","type":"address","indexed":true,"internalType":"address"},{"name":"amount","type":"uint256","indexed":false,"internalType":"uint256"}],"anonymous":false},{"type":"event","name":"Slashed","inputs":[{"name":"user","type":"address","indexed":true,"internalType":"address"},{"name":"amount","type":"uint256","indexed":false,"internalType":"uint256"}],"anonymous":false},{"type":"event","name":"Transfer","inputs":[{"name":"from","type":"address","indexed":true,"internalType":"address"},{"name":"to","type":"address","indexed":true,"internalType":"address"},{"name":"amount","type":"uint256","indexed":false,"internalType":"uint256"}],"anonymous":false},{"type":"event","name":"Wrapped","inputs":[{"name":"user","type":"address","indexed":true,"internalType":"address"},{"name":"amount","type":"uint256","indexed":false,"internalType":"uint256"}],"anonymous":false},{"type":"error","name":"InsufficientAllowance","inputs":[]},{"type":"error","name":"InsufficientBalance","inputs":[]},{"type":"error","name":"OnlyOracle","inputs":[]},{"type":"error","name":"OnlyToken","inputs":[]}],"userdoc":{},"devdoc":{},"evm":{"bytecode":{"object":"60c060405234801561000f575f5ffd5b50604051610a97380380610a9783398101604081905261002e916100c2565b60015f556001600160a01b0382161580159061005257506001600160a01b03811615155b6100905760405162461bcd60e51b8152600401610087906020808252600490820152637a65726f60e01b604082015260600190565b60405180910390fd5b6001600160a01b039182166080521660a0526100f3565b80516001600160a01b03811681146100bd575f5ffd5b919050565b5f5f604083850312156100d3575f5ffd5b6100dc836100a7565b91506100ea602084016100a7565b90509250929050565b60805160a05161096e6101295f395f81816101fb015261068401525f8181610183015281816103f801526105de015261096e5ff3fe608060405234801561000f575f5ffd5b50600436106100e5575f3560e01c80637dc0d1d011610088578063a9059cbb11610063578063a9059cbb14610256578063db006a7514610269578063dd62ed3e1461027c578063f57035e3146102a6575f5ffd5b80637dc0d1d0146101f657806395d89b411461021d578063a23356fa14610241575f5ffd5b806323b872dd116100c357806323b872dd1461016b578063306fb1051461017e578063313ce567146101bd57806370a08231146101d7575f5ffd5b806306fdde03146100e9578063095ea7b31461013157806318160ddd14610154575b5f5ffd5b61011b604051806040016040528060138152602001725772617070656420526573657276652042544360681b81525081565b604051610128919061080d565b60405180910390f35b61014461013f36600461085d565b6102b9565b6040519015158152602001610128565b61015d60015481565b604051908152602001610128565b610144610179366004610885565b610325565b6101a57f000000000000000000000000000000000000000000000000000000000000000081565b6040516001600160a01b039091168152602001610128565b6101c5600881565b60405160ff9091168152602001610128565b61015d6101e53660046108bf565b60026020525f908152604090205481565b6101a57f000000000000000000000000000000000000000000000000000000000000000081565b61011b60405180604001604052806005815260200164777242544360d81b81525081565b61025461024f36600461085d565b6103ed565b005b61014461026436600461085d565b6104ff565b6102546102773660046108df565b610542565b61015d61028a3660046108f6565b600360209081525f928352604080842090915290825290205481565b6102546102b436600461085d565b610679565b335f8181526003602090815260408083206001600160a01b038716808552925280832085905551919290917f8c5be1e5ebec7d5bd14f71427d1e84f3dd0314c0f7b2291e5b200ac8c7c3b925906103139086815260200190565b60405180910390a35060015b92915050565b6001600160a01b0383165f90815260036020908152604080832033845290915281205482811015610369576040516313be252b60e01b815260040160405180910390fd5b6001600160a01b0385165f908152600260205260409020548311156103a157604051631e9acf1760e31b815260040160405180910390fd5b5f1981146103d7576103b3838261093b565b6001600160a01b0386165f9081526003602090815260408083203384529091529020555b6103e285858561073f565b506001949350505050565b336001600160a01b037f0000000000000000000000000000000000000000000000000000000000000000161461043657604051633d0f0d9f60e21b815260040160405180910390fd5b8060015f828254610447919061094e565b90915550506001600160a01b0382165f908152600260205260408120805483929061047390849061094e565b90915550506040518181526001600160a01b038316905f907fddf252ad1be2c89b69c2b068fc378daa952ba7f163c4a11628f55a4df523b3ef9060200160405180910390a3816001600160a01b03167f4700c1726b4198077cd40320a32c45265a1910521eb0ef713dd1d8412413d7fc826040516104f391815260200190565b60405180910390a25050565b335f9081526002602052604081205482111561052e57604051631e9acf1760e31b815260040160405180910390fd5b61053933848461073f565b50600192915050565b60025f54036105845760405162461bcd60e51b815260206004820152600a6024820152695245454e5452414e435960b01b604482015260640160405180910390fd5b60025f81815533815260209190915260409020548111156105b857604051631e9acf1760e31b815260040160405180910390fd5b6105c233826107ad565b60405163515fee3160e11b8152336004820152602481018290527f00000000000000000000000000000000000000000000000000000000000000006001600160a01b03169063a2bfdc62906044015f604051808303815f87803b158015610627575f5ffd5b505af1158015610639573d5f5f3e3d5ffd5b50506040518381523392507f4896181ff8f4543cc00db9fe9b6fb7e6f032b7eb772c72ab1ec1b4d2e03b9369915060200160405180910390a25060015f55565b336001600160a01b037f000000000000000000000000000000000000000000000000000000000000000016146106c2576040516380fee10560e01b815260040160405180910390fd5b6001600160a01b0382165f908152600260205260409020548111156106fa57604051631e9acf1760e31b815260040160405180910390fd5b61070482826107ad565b816001600160a01b03167f4ed05e9673c26d2ed44f7ef6a7f2942df0ee3b5e1e17db4b99f9dcd261a339cd826040516104f391815260200190565b6001600160a01b038084165f81815260026020526040808220805486900390559285168082529083902080548501905591517fddf252ad1be2c89b69c2b068fc378daa952ba7f163c4a11628f55a4df523b3ef906107a09085815260200190565b60405180910390a3505050565b6001600160a01b0382165f81815260026020908152604080832080548690039055600180548690039055518481529192917fddf252ad1be2c89b69c2b068fc378daa952ba7f163c4a11628f55a4df523b3ef910160405180910390a35050565b602081525f82518060208401528060208501604085015e5f604082850101526040601f19601f83011684010191505092915050565b80356001600160a01b0381168114610858575f5ffd5b919050565b5f5f6040838503121561086e575f5ffd5b61087783610842565b946020939093013593505050565b5f5f5f60608486031215610897575f5ffd5b6108a084610842565b92506108ae60208501610842565b929592945050506040919091013590565b5f602082840312156108cf575f5ffd5b6108d882610842565b9392505050565b5f602082840312156108ef575f5ffd5b5035919050565b5f5f60408385031215610907575f5ffd5b61091083610842565b915061091e60208401610842565b90509250929050565b634e487b7160e01b5f52601160045260245ffd5b8181038181111561031f5761031f610927565b8082018082111561031f5761031f61092756fea164736f6c634300081e000a","linkReferences":{}},"methodIdentifiers":{"allowance(address,address)":"dd62ed3e","approve(address,uint256)":"095ea7b3","balanceOf(address)":"70a08231","decimals()":"313ce567","name()":"06fdde03","onWrap(address,uint256)":"a23356fa","oracle()":"7dc0d1d0","rbtc()":"306fb105","redeem(uint256)":"db006a75","slashFromOracle(address,uint256)":"f57035e3","symbol()":"95d89b41","totalSupply()":"18160ddd","transfer(address,uint256)":"a9059cbb","transferFrom(address,address,uint256)":"23b872dd"}}}}}