{"src/rBTCSYNTH.sol":{"rBTCSYNTH":{"abi":[{"type":"constructor","inputs":[{"name":"_oracle","type":"address","internalType":"address"}],"stateMutability":"nonpayable"},{"type":"function","name":"allowance","inputs":[{"name":"","type":"address","internalType":"address"},{"name":"","type":"address","internalType":"address"}],"outputs":[{"name":"","type":"uint256","internalType":"uint256"}],"stateMutability":"pure"},{"type":"function","name":"approve","inputs":[{"name":"","type":"address","internalType":"address"},{"name":"","type":"uint256","internalType":"uint256"}],"outputs":[{"name":"","type":"bool","internalType":"bool"}],"stateMutability":"pure"},{"type":"function","name":"burnFromOracle","inputs":[{"name":"from","type":"address","internalType":"address"},{"name":"amount","type":"uint256","internalType":"uint256"}],"outputs":[],"stateMutability":"nonpayable"},{"type":"function","name":"debitEscrowFromOracle","inputs":[{"name":"user","type":"address","internalType":"address"},{"name":"amount","type":"uint256","internalType":"uint256"}],"outputs":[],"stateMutability":"nonpayable"},{"type":"function","name":"decimals","inputs":[],"outputs":[{"name":"","type":"uint8","internalType":"uint8"}],"stateMutability":"view"},{"type":"function","name":"escrowOf","inputs":[{"name":"u","type":"address","internalType":"address"}],"outputs":[{"name":"","type":"uint256","internalType":"uint256"}],"stateMutability":"view"},{"type":"function","name":"freeBalanceOf","inputs":[{"name":"u","type":"address","internalType":"address"}],"outputs":[{"name":"","type":"uint256","internalType":"uint256"}],"stateMutability":"view"},{"type":"function","name":"freezeVaultAddress","inputs":[],"outputs":[],"stateMutability":"nonpayable"},{"type":"function","name":"mintFromOracle","inputs":[{"name":"to","type":"address","internalType":"address"},{"name":"amount","type":"uint256","internalType":"uint256"}],"outputs":[],"stateMutability":"nonpayable"},{"type":"function","name":"name","inputs":[],"outputs":[{"name":"","type":"string","internalType":"string"}],"stateMutability":"view"},{"type":"function","name":"oracle","inputs":[],"outputs":[{"name":"","type":"address","internalType":"address"}],"stateMutability":"view"},{"type":"function","name":"setVault","inputs":[{"name":"v","type":"address","internalType":"address"}],"outputs":[],"stateMutability":"nonpayable"},{"type":"function","name":"symbol","inputs":[],"outputs":[{"name":"","type":"string","internalType":"string"}],"stateMutability":"view"},{"type":"function","name":"totalBackedOf","inputs":[{"name":"u","type":"address","internalType":"address"}],"outputs":[{"name":"","type":"uint256","internalType":"uint256"}],"stateMutability":"view"},{"type":"function","name":"totalSupply","inputs":[],"outputs":[{"name":"","type":"uint256","internalType":"uint256"}],"stateMutability":"pure"},{"type":"function","name":"transfer","inputs":[{"name":"","type":"address","internalType":"address"},{"name":"","type":"uint256","internalType":"uint256"}],"outputs":[{"name":"","type":"bool","internalType":"bool"}],"stateMutability":"pure"},{"type":"function","name":"transferFrom","inputs":[{"name":"","type":"address","internalType":"address"},{"name":"","type":"address","internalType":"address"},{"name":"","type":"uint256","internalType":"uint256"}],"outputs":[{"name":"","type":"bool","internalType":"bool"}],"stateMutability":"pure"},{"type":"function","name":"unwrapFromVault","inputs":[{"name":"to","type":"address","internalType":"address"},{"name":"amount","type":"uint256","internalType":"uint256"}],"outputs":[],"stateMutability":"nonpayable"},{"type":"function","name":"vault","inputs":[],"outputs":[{"name":"","type":"address","internalType":"address"}],"stateMutability":"view"},{"type":"function","name":"vaultFrozen","inputs":[],"outputs":[{"name":"","type":"bool","internalType":"bool"}],"stateMutability":"view"},{"type":"function","name":"wrap","inputs":[{"name":"amount","type":"uint256","internalType":"uint256"}],"outputs":[],"stateMutability":"nonpayable"},{"type":"event","name":"Burned","inputs":[{"name":"from","type":"address","indexed":true,"internalType":"address"},{"name":"amount","type":"uint256","indexed":false,"internalType":"uint256"}],"anonymous":false},{"type":"event","name":"EscrowDebited","inputs":[{"name":"user","type":"address","indexed":true,"internalType":"address"},{"name":"amount","type":"uint256","indexed":false,"internalType":"uint256"}],"anonymous":false},{"type":"event","name":"Minted","inputs":[{"name":"to","type":"address","indexed":true,"internalType":"address"},{"name":"amount","type":"uint256","indexed":false,"internalType":"uint256"}],"anonymous":false},{"type":"event","name":"Unwrapped","inputs":[{"name":"user","type":"address","indexed":true,"internalType":"address"},{"name":"amount","type":"uint256","indexed":false,"internalType":"uint256"}],"anonymous":false},{"type":"event","name":"VaultSet","inputs":[{"name":"vault","type":"address","indexed":true,"internalType":"address"}],"anonymous":false},{"type":"event","name":"Wrapped","inputs":[{"name":"user","type":"address","indexed":true,"internalType":"address"},{"name":"amount","type":"uint256","indexed":false,"internalType":"uint256"}],"anonymous":false},{"type":"error","name":"InsufficientEscrow","inputs":[]},{"type":"error","name":"InsufficientFree","inputs":[]},{"type":"error","name":"OnlyOracle","inputs":[]},{"type":"error","name":"OnlyVault","inputs":[]},{"type":"error","name":"TransfersDisabled","inputs":[]},{"type":"error","name":"VaultAlreadySet","inputs":[]},{"type":"error","name":"VaultNotSet","inputs":[]}],"userdoc":{},"devdoc":{},"evm":{"bytecode":{"object":"60a060405234801561000f575f5ffd5b50604051610cf9380380610cf983398101604081905261002e91610088565b60015f556001600160a01b0381166100775760405162461bcd60e51b815260206004820152600860248201526706f7261636c653d360c41b604482015260640160405180910390fd5b6001600160a01b03166080526100b5565b5f60208284031215610098575f5ffd5b81516001600160a01b03811681146100ae575f5ffd5b9392505050565b608051610c096100f05f395f818161025f0152818161038901528181610479015281816105290152818161064001526109cb0152610c095ff3fe608060405234801561000f575f5ffd5b5060043610610132575f3560e01c80637dc0d1d0116100b4578063dd62ed3e11610079578063dd62ed3e146102dd578063e038c3da146102f0578063ea598cb014610318578063ec9c74531461032b578063fbfa77cf1461033e578063ffce267b14610351575f5ffd5b80637dc0d1d01461025a57806386dfa8741461029957806395d89b41146102a1578063a2bfdc62146102ca578063a9059cbb14610188575f5ffd5b8063313ce567116100fa578063313ce567146101de578063543e9954146101f85780635701cd07146102205780635b3733c6146102345780636817031b14610247575f5ffd5b806306fdde0314610136578063095ea7b3146101885780631088a838146101ab57806318160ddd146101c057806323b872dd146101d0575b5f5ffd5b6101726040518060400160405280601781526020017f52657365727665204254432028536f756c626f756e642900000000000000000081525081565b60405161017f9190610aa8565b60405180910390f35b61019b610196366004610af8565b610364565b604051901515815260200161017f565b6101be6101b9366004610af8565b61037e565b005b5f5b60405190815260200161017f565b61019b610196366004610b20565b6101e6600881565b60405160ff909116815260200161017f565b6101c2610206366004610b5a565b6001600160a01b03165f9081526002602052604090205490565b60015461019b90600160a01b900460ff1681565b6101be610242366004610af8565b61046e565b6101be610255366004610b5a565b61051e565b6102817f000000000000000000000000000000000000000000000000000000000000000081565b6040516001600160a01b03909116815260200161017f565b6101be610635565b6101726040518060400160405280600a8152602001690e484a8865aa6b29ca8960b31b81525081565b6101be6102d8366004610af8565b610693565b6101c26102eb366004610b7a565b6107d6565b6101c26102fe366004610b5a565b6001600160a01b03165f9081526003602052604090205490565b6101be610326366004610bab565b6107de565b6101c2610339366004610b5a565b610993565b600154610281906001600160a01b031681565b6101be61035f366004610af8565b6109c0565b5f604051638574adcf60e01b815260040160405180910390fd5b336001600160a01b037f000000000000000000000000000000000000000000000000000000000000000016146103c7576040516380fee10560e01b815260040160405180910390fd5b6001600160a01b0382165f908152600260205260409020548111156103ff5760405163fa9ec97360e01b815260040160405180910390fd5b6001600160a01b0382165f9081526002602052604081208054839290610426908490610bd6565b90915550506040518181526001600160a01b038316907f696de425f79f4a40bc6d2122ca50507f0efbeabbff86a84871b7196ab8ea8df7906020015b60405180910390a25050565b336001600160a01b037f000000000000000000000000000000000000000000000000000000000000000016146104b7576040516380fee10560e01b815260040160405180910390fd5b6001600160a01b0382165f90815260026020526040812080548392906104de908490610be9565b90915550506040518181526001600160a01b038316907f30385c845b448a36257a6a1716e6ad2e1bc2cbe333cde1e69fe849ad6511adfe90602001610462565b336001600160a01b037f00000000000000000000000000000000000000000000000000000000000000001614610567576040516380fee10560e01b815260040160405180910390fd5b6001546001600160a01b03161515806105895750600154600160a01b900460ff165b156105a757604051631bb0ddfb60e01b815260040160405180910390fd5b6001600160a01b0381166105ec5760405162461bcd60e51b815260206004820152600760248201526607661756c743d360cc1b60448201526064015b60405180910390fd5b600180546001600160a01b0319166001600160a01b0383169081179091556040517fe7ae49f883c825b05681b3e00e8be6fdea9ed2a8a45e4c6ecb9390fc44cce615905f90a250565b336001600160a01b037f0000000000000000000000000000000000000000000000000000000000000000161461067e576040516380fee10560e01b815260040160405180910390fd5b6001805460ff60a01b1916600160a01b179055565b6001546001600160a01b031633146106be57604051638d1af8bd60e01b815260040160405180910390fd5b60025f54036106fc5760405162461bcd60e51b815260206004820152600a6024820152695245454e5452414e435960b01b60448201526064016105e3565b60025f9081556001600160a01b03831681526003602052604090205481111561073857604051631217157160e31b815260040160405180910390fd5b6001600160a01b0382165f908152600360205260408120805483929061075f908490610bd6565b90915550506001600160a01b0382165f908152600260205260408120805483929061078b908490610be9565b90915550506040518181526001600160a01b038316907f95ae649bfaaef9def56a52f4fb2d9e8fa5496bb7082930e442c74cc76b03dcb39060200160405180910390a2505060015f55565b5f5b92915050565b60025f540361081c5760405162461bcd60e51b815260206004820152600a6024820152695245454e5452414e435960b01b60448201526064016105e3565b60025f556001546001600160a01b031661084957604051630647140b60e51b815260040160405180910390fd5b5f81116108835760405162461bcd60e51b81526020600482015260086024820152670616d6f756e743d360c41b60448201526064016105e3565b335f908152600260205260409020548111156108b25760405163fa9ec97360e01b815260040160405180910390fd5b335f90815260026020526040812080548392906108d0908490610bd6565b9091555050335f90815260036020526040812080548392906108f3908490610be9565b9091555050600154604051635119ab7d60e11b8152336004820152602481018390526001600160a01b039091169063a23356fa906044015f604051808303815f87803b158015610941575f5ffd5b505af1158015610953573d5f5f3e3d5ffd5b50506040518381523392507f4700c1726b4198077cd40320a32c45265a1910521eb0ef713dd1d8412413d7fc915060200160405180910390a25060015f55565b6001600160a01b0381165f9081526003602090815260408083205460029092528220546107d89190610be9565b336001600160a01b037f00000000000000000000000000000000000000000000000000000000000000001614610a09576040516380fee10560e01b815260040160405180910390fd5b6001600160a01b0382165f90815260036020526040902054811115610a4157604051631217157160e31b815260040160405180910390fd5b6001600160a01b0382165f9081526003602052604081208054839290610a68908490610bd6565b90915550506040518181526001600160a01b038316907f9488cf02c9ee1a18bdedcfa1fc93b968ca0552e90360ba54cbe3e31a4b98cfea90602001610462565b602081525f82518060208401528060208501604085015e5f604082850101526040601f19601f83011684010191505092915050565b80356001600160a01b0381168114610af3575f5ffd5b919050565b5f5f60408385031215610b09575f5ffd5b610b1283610add565b946020939093013593505050565b5f5f5f60608486031215610b32575f5ffd5b610b3b84610add565b9250610b4960208501610add565b929592945050506040919091013590565b5f60208284031215610b6a575f5ffd5b610b7382610add565b9392505050565b5f5f60408385031215610b8b575f5ffd5b610b9483610add565b9150610ba260208401610add565b90509250929050565b5f60208284031215610bbb575f5ffd5b5035919050565b634e487b7160e01b5f52601160045260245ffd5b818103818111156107d8576107d8610bc2565b808201808211156107d8576107d8610bc256fea164736f6c634300081e000a","linkReferences":{}},"methodIdentifiers":{"allowance(address,address)":"dd62ed3e","approve(address,uint256)":"095ea7b3","burnFromOracle(address,uint256)":"1088a838","debitEscrowFromOracle(address,uint256)":"ffce267b","decimals()":"313ce567","escrowOf(address)":"e038c3da","freeBalanceOf(address)":"543e9954","freezeVaultAddress()":"86dfa874","mintFromOracle(address,uint256)":"5b3733c6","name()":"06fdde03","oracle()":"7dc0d1d0","setVault(address)":"6817031b","symbol()":"95d89b41","totalBackedOf(address)":"ec9c7453","totalSupply()":"18160ddd","transfer(address,uint256)":"a9059cbb","transferFrom(address,address,uint256)":"23b872dd","unwrapFromVault(address,uint256)":"a2bfdc62","vault()":"fbfa77cf","vaultFrozen()":"5701cd07","wrap(uint256)":"ea598cb0"}}}}}