{"abi":[{"type":"constructor","inputs":[{"name":"_rbtc","type":"address","internalType":"address"},{"name":"_vault","type":"address","internalType":"address"},{"name":"_root","type":"bytes32","internalType":"bytes32"}],"stateMutability":"nonpayable"},{"type":"function","name":"isBacked","inputs":[{"name":"user","type":"address","internalType":"address"}],"outputs":[{"name":"","type":"bool","internalType":"bool"}],"stateMutability":"view"},{"type":"function","name":"isOperator","inputs":[{"name":"","type":"address","internalType":"address"}],"outputs":[{"name":"","type":"bool","internalType":"bool"}],"stateMutability":"view"},{"type":"function","name":"lastVerifiedRound","inputs":[{"name":"","type":"address","internalType":"address"}],"outputs":[{"name":"","type":"uint64","internalType":"uint64"}],"stateMutability":"view"},{"type":"function","name":"merkleRoot","inputs":[],"outputs":[{"name":"","type":"bytes32","internalType":"bytes32"}],"stateMutability":"view"},{"type":"function","name":"owner","inputs":[],"outputs":[{"name":"","type":"address","internalType":"address"}],"stateMutability":"view"},{"type":"function","name":"rbtc","inputs":[],"outputs":[{"name":"","type":"address","internalType":"contract IRBTCToken"}],"stateMutability":"view"},{"type":"function","name":"setMerkleRoot","inputs":[{"name":"root","type":"bytes32","internalType":"bytes32"}],"outputs":[],"stateMutability":"nonpayable"},{"type":"function","name":"setOperator","inputs":[{"name":"op","type":"address","internalType":"address"},{"name":"on","type":"bool","internalType":"bool"}],"outputs":[],"stateMutability":"nonpayable"},{"type":"function","name":"setOwner","inputs":[{"name":"n","type":"address","internalType":"address"}],"outputs":[],"stateMutability":"nonpayable"},{"type":"function","name":"syncVerifiedTotal","inputs":[{"name":"user","type":"address","internalType":"address"},{"name":"newTotalSats","type":"uint256","internalType":"uint256"},{"name":"round","type":"uint64","internalType":"uint64"}],"outputs":[],"stateMutability":"nonpayable"},{"type":"function","name":"vault","inputs":[],"outputs":[{"name":"","type":"address","internalType":"contract IWrVault"}],"stateMutability":"view"},{"type":"function","name":"verifiedTotalSats","inputs":[{"name":"user","type":"address","internalType":"address"}],"outputs":[{"name":"","type":"uint256","internalType":"uint256"}],"stateMutability":"view"},{"type":"function","name":"verifyBinding","inputs":[{"name":"user","type":"address","internalType":"address"},{"name":"btcAddressBytes","type":"bytes","internalType":"bytes"},{"name":"proof","type":"bytes32[]","internalType":"bytes32[]"}],"outputs":[{"name":"","type":"bool","internalType":"bool"}],"stateMutability":"view"},{"type":"event","name":"MerkleRootUpdated","inputs":[{"name":"root","type":"bytes32","indexed":false,"internalType":"bytes32"}],"anonymous":false},{"type":"event","name":"OperatorSet","inputs":[{"name":"op","type":"address","indexed":true,"internalType":"address"},{"name":"enabled","type":"bool","indexed":false,"internalType":"bool"}],"anonymous":false},{"type":"event","name":"OwnerChanged","inputs":[{"name":"newOwner","type":"address","indexed":true,"internalType":"address"}],"anonymous":false},{"type":"error","name":"OnlyOperator","inputs":[]},{"type":"error","name":"OnlyOwner","inputs":[]}],"bytecode":{"object":"0x60c060405234801561000f575f5ffd5b50604051610e6a380380610e6a83398101604081905261002e9161018d565b6001600160a01b0383161580159061004e57506001600160a01b03821615155b61008c5760405162461bcd60e51b8152600401610083906020808252600490820152637a65726f60e01b604082015260600190565b60405180910390fd5b6001600160a01b03808416608052821660a0525f80546001600160a01b0319163390811782558152600160208190526040909120805460ff19169091179055801561010a5760028190556040518181527f90004c04698bc3322499a575ed3752dd4abf33e0a7294c06a787a0fe01bea9419060200160405180910390a15b60405133907fa2ea9883a321a3e97b8266c2b078bfeec6d50c711ed71f874a90d500ae2eaf36905f90a26040516001815233907f1a594081ae893ab78e67d9b9e843547318164322d32c65369d78a96172d9dc8f9060200160405180910390a25050506101c6565b80516001600160a01b0381168114610188575f5ffd5b919050565b5f5f5f6060848603121561019f575f5ffd5b6101a884610172565b92506101b660208501610172565b9150604084015190509250925092565b60805160a051610c4b61021f5f395f818161023c015261068c01525f81816101050152818161040c0152818161048b01528181610550015281816105fa0152818161070a0152818161086b01526109070152610c4b5ff3fe608060405234801561000f575f5ffd5b50600436106100cb575f3560e01c80637d5a37ca11610088578063aa5cdef511610063578063aa5cdef5146101cf578063dc1520cc14610211578063ec5a384814610224578063fbfa77cf14610237575f5ffd5b80637d5a37ca146101975780638da5cb5b146101aa57806398fb3358146101bc575f5ffd5b806313af4035146100cf5780632eb4a7ab146100e4578063306fb10514610100578063558a72971461013f5780636d70f7ae146101525780637cb6475914610184575b5f5ffd5b6100e26100dd366004610a35565b61025e565b005b6100ed60025481565b6040519081526020015b60405180910390f35b6101277f000000000000000000000000000000000000000000000000000000000000000081565b6040516001600160a01b0390911681526020016100f7565b6100e261014d366004610a55565b6102cf565b610174610160366004610a35565b60016020525f908152604090205460ff1681565b60405190151581526020016100f7565b6100e2610192366004610a8e565b610357565b6100e26101a5366004610aa5565b6103bc565b5f54610127906001600160a01b031681565b6101746101ca366004610b36565b6107b1565b6101f86101dd366004610a35565b60036020525f908152604090205467ffffffffffffffff1681565b60405167ffffffffffffffff90911681526020016100f7565b61017461021f366004610a35565b61084a565b6100ed610232366004610a35565b6108e6565b6101277f000000000000000000000000000000000000000000000000000000000000000081565b5f546001600160a01b0316331461028857604051635fc483c560e01b815260040160405180910390fd5b5f80546001600160a01b0319166001600160a01b038316908117825560405190917fa2ea9883a321a3e97b8266c2b078bfeec6d50c711ed71f874a90d500ae2eaf3691a250565b5f546001600160a01b031633146102f957604051635fc483c560e01b815260040160405180910390fd5b6001600160a01b0382165f81815260016020908152604091829020805460ff191685151590811790915591519182527f1a594081ae893ab78e67d9b9e843547318164322d32c65369d78a96172d9dc8f910160405180910390a25050565b5f546001600160a01b0316331461038157604051635fc483c560e01b815260040160405180910390fd5b60028190556040518181527f90004c04698bc3322499a575ed3752dd4abf33e0a7294c06a787a0fe01bea9419060200160405180910390a150565b335f9081526001602052604090205460ff166103eb576040516327e1f1e560e01b815260040160405180910390fd5b60405163ec9c745360e01b81526001600160a01b0384811660048301525f917f00000000000000000000000000000000000000000000000000000000000000009091169063ec9c745390602401602060405180830381865afa158015610453573d5f5f3e3d5ffd5b505050506040513d601f19601f820116820180604052508101906104779190610be5565b905080831115610519576001600160a01b037f000000000000000000000000000000000000000000000000000000000000000016635b3733c6856104bb8487610bfc565b6040516001600160e01b031960e085901b1681526001600160a01b03909216600483015260248201526044015f604051808303815f87803b1580156104fe575f5ffd5b505af1158015610510573d5f5f3e3d5ffd5b50505050610768565b80831015610768575f61052c8483610bfc565b60405163150fa65560e21b81526001600160a01b0387811660048301529192505f917f0000000000000000000000000000000000000000000000000000000000000000169063543e995490602401602060405180830381865afa158015610595573d5f5f3e3d5ffd5b505050506040513d601f19601f820116820180604052508101906105b99190610be5565b90505f828210156105ca57816105cc565b825b9050801561066057604051630211150760e31b81526001600160a01b038881166004830152602482018390527f00000000000000000000000000000000000000000000000000000000000000001690631088a838906044015f604051808303815f87803b15801561063b575f5ffd5b505af115801561064d573d5f5f3e3d5ffd5b50505050808361065d9190610bfc565b92505b82156107645760405163f57035e360e01b81526001600160a01b038881166004830152602482018590527f0000000000000000000000000000000000000000000000000000000000000000169063f57035e3906044015f604051808303815f87803b1580156106cd575f5ffd5b505af11580156106df573d5f5f3e3d5ffd5b505060405160016231d98560e01b031981526001600160a01b038a81166004830152602482018790527f000000000000000000000000000000000000000000000000000000000000000016925063ffce267b91506044015f604051808303815f87803b15801561074d575f5ffd5b505af115801561075f573d5f5f3e3d5ffd5b505050505b5050505b67ffffffffffffffff8216156107ab576001600160a01b0384165f908152600360205260409020805467ffffffffffffffff191667ffffffffffffffff84161790555b50505050565b5f5f8686866040516107c4929190610c1b565b604080519182900382206001600160a01b03909316602083015281019190915260600160405160208183030381529060405280519060200120905061083f8484808060200260200160405190810160405280939291908181526020018383602002808284375f92019190915250506002549150849050610978565b979650505050505050565b60405163ec9c745360e01b81526001600160a01b0382811660048301525f917f00000000000000000000000000000000000000000000000000000000000000009091169063ec9c745390602401602060405180830381865afa1580156108b2573d5f5f3e3d5ffd5b505050506040513d601f19601f820116820180604052508101906108d69190610be5565b6108df836108e6565b1492915050565b60405163ec9c745360e01b81526001600160a01b0382811660048301525f917f00000000000000000000000000000000000000000000000000000000000000009091169063ec9c745390602401602060405180830381865afa15801561094e573d5f5f3e3d5ffd5b505050506040513d601f19601f820116820180604052508101906109729190610be5565b92915050565b5f81815b8551811015610a0f575f86828151811061099857610998610c2a565b60200260200101519050808311156109d957604080516020810183905290810184905260600160405160208183030381529060405280519060200120610a04565b6040805160208101859052908101829052606001604051602081830303815290604052805190602001205b92505060010161097c565b509092149392505050565b80356001600160a01b0381168114610a30575f5ffd5b919050565b5f60208284031215610a45575f5ffd5b610a4e82610a1a565b9392505050565b5f5f60408385031215610a66575f5ffd5b610a6f83610a1a565b915060208301358015158114610a83575f5ffd5b809150509250929050565b5f60208284031215610a9e575f5ffd5b5035919050565b5f5f5f60608486031215610ab7575f5ffd5b610ac084610a1a565b925060208401359150604084013567ffffffffffffffff81168114610ae3575f5ffd5b809150509250925092565b5f5f83601f840112610afe575f5ffd5b50813567ffffffffffffffff811115610b15575f5ffd5b6020830191508360208260051b8501011115610b2f575f5ffd5b9250929050565b5f5f5f5f5f60608688031215610b4a575f5ffd5b610b5386610a1a565b9450602086013567ffffffffffffffff811115610b6e575f5ffd5b8601601f81018813610b7e575f5ffd5b803567ffffffffffffffff811115610b94575f5ffd5b886020828401011115610ba5575f5ffd5b60209190910194509250604086013567ffffffffffffffff811115610bc8575f5ffd5b610bd488828901610aee565b969995985093965092949392505050565b5f60208284031215610bf5575f5ffd5b5051919050565b8181038181111561097257634e487b7160e01b5f52601160045260245ffd5b818382375f9101908152919050565b634e487b7160e01b5f52603260045260245ffdfea164736f6c634300081e000a","linkReferences":{}},"methodIdentifiers":{"isBacked(address)":"dc1520cc","isOperator(address)":"6d70f7ae","lastVerifiedRound(address)":"aa5cdef5","merkleRoot()":"2eb4a7ab","owner()":"8da5cb5b","rbtc()":"306fb105","setMerkleRoot(bytes32)":"7cb64759","setOperator(address,bool)":"558a7297","setOwner(address)":"13af4035","syncVerifiedTotal(address,uint256,uint64)":"7d5a37ca","vault()":"fbfa77cf","verifiedTotalSats(address)":"ec5a3848","verifyBinding(address,bytes,bytes32[])":"98fb3358"},"id":21}