{"abi":[{"type":"constructor","inputs":[{"name":"_oracle","type":"address","internalType":"address"}],"stateMutability":"nonpayable"},{"type":"function","name":"allowance","inputs":[{"name":"","type":"address","internalType":"address"},{"name":"","type":"address","internalType":"address"}],"outputs":[{"name":"","type":"uint256","internalType":"uint256"}],"stateMutability":"pure"},{"type":"function","name":"approve","inputs":[{"name":"","type":"address","internalType":"address"},{"name":"","type":"uint256","internalType":"uint256"}],"outputs":[{"name":"","type":"bool","internalType":"bool"}],"stateMutability":"pure"},{"type":"function","name":"burnFromOracle","inputs":[{"name":"from","type":"address","internalType":"address"},{"name":"amount","type":"uint256","internalType":"uint256"}],"outputs":[],"stateMutability":"nonpayable"},{"type":"function","name":"debitEscrowFromOracle","inputs":[{"name":"user","type":"address","internalType":"address"},{"name":"amount","type":"uint256","internalType":"uint256"}],"outputs":[],"stateMutability":"nonpayable"},{"type":"function","name":"decimals","inputs":[],"outputs":[{"name":"","type":"uint8","internalType":"uint8"}],"stateMutability":"view"},{"type":"function","name":"escrowOf","inputs":[{"name":"u","type":"address","internalType":"address"}],"outputs":[{"name":"","type":"uint256","internalType":"uint256"}],"stateMutability":"view"},{"type":"function","name":"freeBalanceOf","inputs":[{"name":"u","type":"address","internalType":"address"}],"outputs":[{"name":"","type":"uint256","internalType":"uint256"}],"stateMutability":"view"},{"type":"function","name":"freezeVaultAddress","inputs":[],"outputs":[],"stateMutability":"nonpayable"},{"type":"function","name":"mintFromOracle","inputs":[{"name":"to","type":"address","internalType":"address"},{"name":"amount","type":"uint256","internalType":"uint256"}],"outputs":[],"stateMutability":"nonpayable"},{"type":"function","name":"name","inputs":[],"outputs":[{"name":"","type":"string","internalType":"string"}],"stateMutability":"view"},{"type":"function","name":"oracle","inputs":[],"outputs":[{"name":"","type":"address","internalType":"address"}],"stateMutability":"view"},{"type":"function","name":"setVault","inputs":[{"name":"v","type":"address","internalType":"address"}],"outputs":[],"stateMutability":"nonpayable"},{"type":"function","name":"symbol","inputs":[],"outputs":[{"name":"","type":"string","internalType":"string"}],"stateMutability":"view"},{"type":"function","name":"totalBackedOf","inputs":[{"name":"u","type":"address","internalType":"address"}],"outputs":[{"name":"","type":"uint256","internalType":"uint256"}],"stateMutability":"view"},{"type":"function","name":"totalSupply","inputs":[],"outputs":[{"name":"s","type":"uint256","internalType":"uint256"}],"stateMutability":"pure"},{"type":"function","name":"transfer","inputs":[{"name":"","type":"address","internalType":"address"},{"name":"","type":"uint256","internalType":"uint256"}],"outputs":[{"name":"","type":"bool","internalType":"bool"}],"stateMutability":"pure"},{"type":"function","name":"transferFrom","inputs":[{"name":"","type":"address","internalType":"address"},{"name":"","type":"address","internalType":"address"},{"name":"","type":"uint256","internalType":"uint256"}],"outputs":[{"name":"","type":"bool","internalType":"bool"}],"stateMutability":"pure"},{"type":"function","name":"unwrapFromVault","inputs":[{"name":"to","type":"address","internalType":"address"},{"name":"amount","type":"uint256","internalType":"uint256"}],"outputs":[],"stateMutability":"nonpayable"},{"type":"function","name":"vault","inputs":[],"outputs":[{"name":"","type":"address","internalType":"address"}],"stateMutability":"view"},{"type":"function","name":"vaultFrozen","inputs":[],"outputs":[{"name":"","type":"bool","internalType":"bool"}],"stateMutability":"view"},{"type":"function","name":"wrap","inputs":[{"name":"amount","type":"uint256","internalType":"uint256"}],"outputs":[],"stateMutability":"nonpayable"},{"type":"event","name":"Burned","inputs":[{"name":"from","type":"address","indexed":true,"internalType":"address"},{"name":"amount","type":"uint256","indexed":false,"internalType":"uint256"}],"anonymous":false},{"type":"event","name":"EscrowDebited","inputs":[{"name":"user","type":"address","indexed":true,"internalType":"address"},{"name":"amount","type":"uint256","indexed":false,"internalType":"uint256"}],"anonymous":false},{"type":"event","name":"Minted","inputs":[{"name":"to","type":"address","indexed":true,"internalType":"address"},{"name":"amount","type":"uint256","indexed":false,"internalType":"uint256"}],"anonymous":false},{"type":"event","name":"Unwrapped","inputs":[{"name":"user","type":"address","indexed":true,"internalType":"address"},{"name":"amount","type":"uint256","indexed":false,"internalType":"uint256"}],"anonymous":false},{"type":"event","name":"VaultSet","inputs":[{"name":"vault","type":"address","indexed":true,"internalType":"address"}],"anonymous":false},{"type":"event","name":"Wrapped","inputs":[{"name":"user","type":"address","indexed":true,"internalType":"address"},{"name":"amount","type":"uint256","indexed":false,"internalType":"uint256"}],"anonymous":false},{"type":"error","name":"InsufficientEscrow","inputs":[]},{"type":"error","name":"InsufficientFree","inputs":[]},{"type":"error","name":"OnlyOracle","inputs":[]},{"type":"error","name":"OnlyVault","inputs":[]},{"type":"error","name":"TransfersDisabled","inputs":[]},{"type":"error","name":"VaultAlreadySet","inputs":[]},{"type":"error","name":"VaultNotSet","inputs":[]}],"bytecode":{"object":"0x60a060405234801561000f575f5ffd5b50604051610c1d380380610c1d83398101604081905261002e91610084565b6001600160a01b0381166100735760405162461bcd60e51b815260206004820152600860248201526706f7261636c653d360c41b604482015260640160405180910390fd5b6001600160a01b03166080526100b1565b5f60208284031215610094575f5ffd5b81516001600160a01b03811681146100aa575f5ffd5b9392505050565b608051610b316100ec5f395f818161025e0152818161038701528181610477015281816105270152818161063901526108f30152610b315ff3fe608060405234801561000f575f5ffd5b5060043610610132575f3560e01c80637dc0d1d0116100b4578063dd62ed3e11610079578063dd62ed3e146102dc578063e038c3da146102ef578063ea598cb014610317578063ec9c74531461032a578063fbfa77cf1461033d578063ffce267b1461034f575f5ffd5b80637dc0d1d01461025957806386dfa8741461029857806395d89b41146102a0578063a2bfdc62146102c9578063a9059cbb14610188575f5ffd5b8063313ce567116100fa578063313ce567146101de578063543e9954146101f85780635701cd07146102205780635b3733c6146102335780636817031b14610246575f5ffd5b806306fdde0314610136578063095ea7b3146101885780631088a838146101ab57806318160ddd146101c057806323b872dd146101d0575b5f5ffd5b6101726040518060400160405280601781526020017f52657365727665204254432028536f756c626f756e642900000000000000000081525081565b60405161017f91906109d0565b60405180910390f35b61019b610196366004610a20565b610362565b604051901515815260200161017f565b6101be6101b9366004610a20565b61037c565b005b5f5b60405190815260200161017f565b61019b610196366004610a48565b6101e6600881565b60405160ff909116815260200161017f565b6101c2610206366004610a82565b6001600160a01b03165f9081526001602052604090205490565b5f5461019b90600160a01b900460ff1681565b6101be610241366004610a20565b61046c565b6101be610254366004610a82565b61051c565b6102807f000000000000000000000000000000000000000000000000000000000000000081565b6040516001600160a01b03909116815260200161017f565b6101be61062e565b6101726040518060400160405280600a8152602001690e484a8865aa6b29ca8960b31b81525081565b6101be6102d7366004610a20565b61068b565b6101c26102ea366004610aa2565b610780565b6101c26102fd366004610a82565b6001600160a01b03165f9081526002602052604090205490565b6101be610325366004610ad3565b610788565b6101c2610338366004610a82565b6108bb565b5f54610280906001600160a01b031681565b6101be61035d366004610a20565b6108e8565b5f604051638574adcf60e01b815260040160405180910390fd5b336001600160a01b037f000000000000000000000000000000000000000000000000000000000000000016146103c5576040516380fee10560e01b815260040160405180910390fd5b6001600160a01b0382165f908152600160205260409020548111156103fd5760405163fa9ec97360e01b815260040160405180910390fd5b6001600160a01b0382165f9081526001602052604081208054839290610424908490610afe565b90915550506040518181526001600160a01b038316907f696de425f79f4a40bc6d2122ca50507f0efbeabbff86a84871b7196ab8ea8df7906020015b60405180910390a25050565b336001600160a01b037f000000000000000000000000000000000000000000000000000000000000000016146104b5576040516380fee10560e01b815260040160405180910390fd5b6001600160a01b0382165f90815260016020526040812080548392906104dc908490610b11565b90915550506040518181526001600160a01b038316907f30385c845b448a36257a6a1716e6ad2e1bc2cbe333cde1e69fe849ad6511adfe90602001610460565b336001600160a01b037f00000000000000000000000000000000000000000000000000000000000000001614610565576040516380fee10560e01b815260040160405180910390fd5b5f546001600160a01b031615158061058557505f54600160a01b900460ff165b156105a357604051631bb0ddfb60e01b815260040160405180910390fd5b6001600160a01b0381166105e75760405162461bcd60e51b815260206004820152600760248201526607661756c743d360cc1b604482015260640160405180910390fd5b5f80546001600160a01b0319166001600160a01b038316908117825560405190917fe7ae49f883c825b05681b3e00e8be6fdea9ed2a8a45e4c6ecb9390fc44cce61591a250565b336001600160a01b037f00000000000000000000000000000000000000000000000000000000000000001614610677576040516380fee10560e01b815260040160405180910390fd5b5f805460ff60a01b1916600160a01b179055565b5f546001600160a01b031633146106b557604051638d1af8bd60e01b815260040160405180910390fd5b6001600160a01b0382165f908152600260205260409020548111156106ed57604051631217157160e31b815260040160405180910390fd5b6001600160a01b0382165f9081526002602052604081208054839290610714908490610afe565b90915550506001600160a01b0382165f9081526001602052604081208054839290610740908490610b11565b90915550506040518181526001600160a01b038316907f95ae649bfaaef9def56a52f4fb2d9e8fa5496bb7082930e442c74cc76b03dcb390602001610460565b5f5b92915050565b5f546001600160a01b03166107b057604051630647140b60e51b815260040160405180910390fd5b335f908152600160205260409020548111156107df5760405163fa9ec97360e01b815260040160405180910390fd5b335f90815260016020526040812080548392906107fd908490610afe565b9091555050335f9081526002602052604081208054839290610820908490610b11565b90915550505f54604051635119ab7d60e11b8152336004820152602481018390526001600160a01b039091169063a23356fa906044015f604051808303815f87803b15801561086d575f5ffd5b505af115801561087f573d5f5f3e3d5ffd5b50506040518381523392507f4700c1726b4198077cd40320a32c45265a1910521eb0ef713dd1d8412413d7fc915060200160405180910390a250565b6001600160a01b0381165f9081526002602090815260408083205460019092528220546107829190610b11565b336001600160a01b037f00000000000000000000000000000000000000000000000000000000000000001614610931576040516380fee10560e01b815260040160405180910390fd5b6001600160a01b0382165f9081526002602052604090205481111561096957604051631217157160e31b815260040160405180910390fd5b6001600160a01b0382165f9081526002602052604081208054839290610990908490610afe565b90915550506040518181526001600160a01b038316907f9488cf02c9ee1a18bdedcfa1fc93b968ca0552e90360ba54cbe3e31a4b98cfea90602001610460565b602081525f82518060208401528060208501604085015e5f604082850101526040601f19601f83011684010191505092915050565b80356001600160a01b0381168114610a1b575f5ffd5b919050565b5f5f60408385031215610a31575f5ffd5b610a3a83610a05565b946020939093013593505050565b5f5f5f60608486031215610a5a575f5ffd5b610a6384610a05565b9250610a7160208501610a05565b929592945050506040919091013590565b5f60208284031215610a92575f5ffd5b610a9b82610a05565b9392505050565b5f5f60408385031215610ab3575f5ffd5b610abc83610a05565b9150610aca60208401610a05565b90509250929050565b5f60208284031215610ae3575f5ffd5b5035919050565b634e487b7160e01b5f52601160045260245ffd5b8181038181111561078257610782610aea565b8082018082111561078257610782610aea56fea164736f6c634300081e000a","linkReferences":{}},"methodIdentifiers":{"allowance(address,address)":"dd62ed3e","approve(address,uint256)":"095ea7b3","burnFromOracle(address,uint256)":"1088a838","debitEscrowFromOracle(address,uint256)":"ffce267b","decimals()":"313ce567","escrowOf(address)":"e038c3da","freeBalanceOf(address)":"543e9954","freezeVaultAddress()":"86dfa874","mintFromOracle(address,uint256)":"5b3733c6","name()":"06fdde03","oracle()":"7dc0d1d0","setVault(address)":"6817031b","symbol()":"95d89b41","totalBackedOf(address)":"ec9c7453","totalSupply()":"18160ddd","transfer(address,uint256)":"a9059cbb","transferFrom(address,address,uint256)":"23b872dd","unwrapFromVault(address,uint256)":"a2bfdc62","vault()":"fbfa77cf","vaultFrozen()":"5701cd07","wrap(uint256)":"ea598cb0"},"id":20}